{
  "_format": "hh-sol-artifact-1",
  "contractName": "AddLiquidity",
  "sourceName": "contracts/AddLiquidity.sol",
  "abi": [
    {
      "inputs": [
        {
          "internalType": "address",
          "name": "_uniswapRouter",
          "type": "address"
        }
      ],
      "stateMutability": "nonpayable",
      "type": "constructor"
    },
    {
      "inputs": [
        {
          "internalType": "address",
          "name": "tokenA",
          "type": "address"
        },
        {
          "internalType": "address",
          "name": "tokenB",
          "type": "address"
        },
        {
          "internalType": "uint256",
          "name": "amountADesired",
          "type": "uint256"
        },
        {
          "internalType": "uint256",
          "name": "amountBDesired",
          "type": "uint256"
        },
        {
          "internalType": "uint256",
          "name": "amountAMin",
          "type": "uint256"
        },
        {
          "internalType": "uint256",
          "name": "amountBMin",
          "type": "uint256"
        },
        {
          "internalType": "address",
          "name": "to",
          "type": "address"
        },
        {
          "internalType": "uint256",
          "name": "deadline",
          "type": "uint256"
        }
      ],
      "name": "handleAddLiquidity",
      "outputs": [],
      "stateMutability": "nonpayable",
      "type": "function"
    },
    {
      "inputs": [],
      "name": "owner",
      "outputs": [
        {
          "internalType": "address",
          "name": "",
          "type": "address"
        }
      ],
      "stateMutability": "view",
      "type": "function"
    },
    {
      "inputs": [],
      "name": "swapCount",
      "outputs": [
        {
          "internalType": "uint256",
          "name": "",
          "type": "uint256"
        }
      ],
      "stateMutability": "view",
      "type": "function"
    },
    {
      "inputs": [],
      "name": "uniswapRouter",
      "outputs": [
        {
          "internalType": "address",
          "name": "",
          "type": "address"
        }
      ],
      "stateMutability": "view",
      "type": "function"
    }
  ],
  "bytecode": "0x608060405234801561001057600080fd5b506040516106623803806106628339818101604052810190610032919061011c565b806000806101000a81548173ffffffffffffffffffffffffffffffffffffffff021916908373ffffffffffffffffffffffffffffffffffffffff16021790555033600160006101000a81548173ffffffffffffffffffffffffffffffffffffffff021916908373ffffffffffffffffffffffffffffffffffffffff16021790555050610149565b600080fd5b600073ffffffffffffffffffffffffffffffffffffffff82169050919050565b60006100e9826100be565b9050919050565b6100f9816100de565b811461010457600080fd5b50565b600081519050610116816100f0565b92915050565b600060208284031215610132576101316100b9565b5b600061014084828501610107565b91505092915050565b61050a806101586000396000f3fe608060405234801561001057600080fd5b506004361061004c5760003560e01c80632eff0d9e146100515780636873f4801461006f578063735de9f71461008b5780638da5cb5b146100a9575b600080fd5b6100596100c7565b6040516100669190610201565b60405180910390f35b610089600480360381019061008491906102ab565b6100cd565b005b61009361019e565b6040516100a09190610370565b60405180910390f35b6100b16101c2565b6040516100be9190610370565b60405180910390f35b60025481565b60008054906101000a900473ffffffffffffffffffffffffffffffffffffffff1673ffffffffffffffffffffffffffffffffffffffff1663e8e3370089898989898989896040518963ffffffff1660e01b815260040161013498979695949392919061038b565b6060604051808303816000875af1158015610153573d6000803e3d6000fd5b505050506040513d601f19601f82011682018060405250810190610177919061041e565b50505060016002600082825461018d91906104a0565b925050819055505050505050505050565b60008054906101000a900473ffffffffffffffffffffffffffffffffffffffff1681565b600160009054906101000a900473ffffffffffffffffffffffffffffffffffffffff1681565b6000819050919050565b6101fb816101e8565b82525050565b600060208201905061021660008301846101f2565b92915050565b600080fd5b600073ffffffffffffffffffffffffffffffffffffffff82169050919050565b600061024c82610221565b9050919050565b61025c81610241565b811461026757600080fd5b50565b60008135905061027981610253565b92915050565b610288816101e8565b811461029357600080fd5b50565b6000813590506102a58161027f565b92915050565b600080600080600080600080610100898b0312156102cc576102cb61021c565b5b60006102da8b828c0161026a565b98505060206102eb8b828c0161026a565b97505060406102fc8b828c01610296565b965050606061030d8b828c01610296565b955050608061031e8b828c01610296565b94505060a061032f8b828c01610296565b93505060c06103408b828c0161026a565b92505060e06103518b828c01610296565b9150509295985092959890939650565b61036a81610241565b82525050565b60006020820190506103856000830184610361565b92915050565b6000610100820190506103a1600083018b610361565b6103ae602083018a610361565b6103bb60408301896101f2565b6103c860608301886101f2565b6103d560808301876101f2565b6103e260a08301866101f2565b6103ef60c0830185610361565b6103fc60e08301846101f2565b9998505050505050505050565b6000815190506104188161027f565b92915050565b6000806000606084860312156104375761043661021c565b5b600061044586828701610409565b935050602061045686828701610409565b925050604061046786828701610409565b9150509250925092565b7f4e487b7100000000000000000000000000000000000000000000000000000000600052601160045260246000fd5b60006104ab826101e8565b91506104b6836101e8565b92508282019050808211156104ce576104cd610471565b5b9291505056fea2646970667358221220776ae7964f488dceeb100ed86d8639d80c30c855a1be4dc3c88f70777450839964736f6c63430008180033",
  "linkReferences": {},
  "deployedLinkReferences": {}
}