{
  "_format": "hh-sol-artifact-1",
  "contractName": "UseSwap",
  "sourceName": "contracts/UseSwap.sol",
  "abi": [
    {
      "inputs": [
        {
          "internalType": "address",
          "name": "_uniswapRouter",
          "type": "address"
        }
      ],
      "stateMutability": "nonpayable",
      "type": "constructor"
    },
    {
      "inputs": [
        {
          "internalType": "uint256",
          "name": "amountOut",
          "type": "uint256"
        },
        {
          "internalType": "uint256",
          "name": "amountInMax",
          "type": "uint256"
        },
        {
          "internalType": "address[]",
          "name": "path",
          "type": "address[]"
        },
        {
          "internalType": "address",
          "name": "to",
          "type": "address"
        },
        {
          "internalType": "uint256",
          "name": "deadline",
          "type": "uint256"
        }
      ],
      "name": "handleSwap",
      "outputs": [],
      "stateMutability": "nonpayable",
      "type": "function"
    },
    {
      "inputs": [],
      "name": "owner",
      "outputs": [
        {
          "internalType": "address",
          "name": "",
          "type": "address"
        }
      ],
      "stateMutability": "view",
      "type": "function"
    },
    {
      "inputs": [],
      "name": "swapCount",
      "outputs": [
        {
          "internalType": "uint256",
          "name": "",
          "type": "uint256"
        }
      ],
      "stateMutability": "view",
      "type": "function"
    },
    {
      "inputs": [],
      "name": "uniswapRouter",
      "outputs": [
        {
          "internalType": "address",
          "name": "",
          "type": "address"
        }
      ],
      "stateMutability": "view",
      "type": "function"
    }
  ],
  "bytecode": "0x608060405234801561001057600080fd5b50604051610be9380380610be98339818101604052810190610032919061011c565b806000806101000a81548173ffffffffffffffffffffffffffffffffffffffff021916908373ffffffffffffffffffffffffffffffffffffffff16021790555033600160006101000a81548173ffffffffffffffffffffffffffffffffffffffff021916908373ffffffffffffffffffffffffffffffffffffffff16021790555050610149565b600080fd5b600073ffffffffffffffffffffffffffffffffffffffff82169050919050565b60006100e9826100be565b9050919050565b6100f9816100de565b811461010457600080fd5b50565b600081519050610116816100f0565b92915050565b600060208284031215610132576101316100b9565b5b600061014084828501610107565b91505092915050565b610a91806101586000396000f3fe608060405234801561001057600080fd5b506004361061004c5760003560e01c806310e4584d146100515780632eff0d9e1461006d578063735de9f71461008b5780638da5cb5b146100a9575b600080fd5b61006b600480360381019061006691906104a0565b6100c7565b005b610075610343565b6040516100829190610549565b60405180910390f35b610093610349565b6040516100a09190610573565b60405180910390f35b6100b161036d565b6040516100be9190610573565b60405180910390f35b838360008181106100db576100da61058e565b5b90506020020160208101906100f091906105bd565b73ffffffffffffffffffffffffffffffffffffffff166323b872dd3330886040518463ffffffff1660e01b815260040161012c939291906105ea565b6020604051808303816000875af115801561014b573d6000803e3d6000fd5b505050506040513d601f19601f8201168201806040525081019061016f9190610659565b50838360008181106101845761018361058e565b5b905060200201602081019061019991906105bd565b73ffffffffffffffffffffffffffffffffffffffff1663095ea7b360008054906101000a900473ffffffffffffffffffffffffffffffffffffffff16876040518363ffffffff1660e01b81526004016101f3929190610686565b6020604051808303816000875af1158015610212573d6000803e3d6000fd5b505050506040513d601f19601f820116820180604052508101906102369190610659565b610275576040517f08c379a000000000000000000000000000000000000000000000000000000000815260040161026c9061070c565b60405180910390fd5b60008054906101000a900473ffffffffffffffffffffffffffffffffffffffff1673ffffffffffffffffffffffffffffffffffffffff16638803dbee8787878787876040518763ffffffff1660e01b81526004016102d8969594939291906107ef565b6000604051808303816000875af11580156102f7573d6000803e3d6000fd5b505050506040513d6000823e3d601f19601f8201168201806040525081019061032091906109af565b506001600260008282546103349190610a27565b92505081905550505050505050565b60025481565b60008054906101000a900473ffffffffffffffffffffffffffffffffffffffff1681565b600160009054906101000a900473ffffffffffffffffffffffffffffffffffffffff1681565b6000604051905090565b600080fd5b600080fd5b6000819050919050565b6103ba816103a7565b81146103c557600080fd5b50565b6000813590506103d7816103b1565b92915050565b600080fd5b600080fd5b600080fd5b60008083601f840112610402576104016103dd565b5b8235905067ffffffffffffffff81111561041f5761041e6103e2565b5b60208301915083602082028301111561043b5761043a6103e7565b5b9250929050565b600073ffffffffffffffffffffffffffffffffffffffff82169050919050565b600061046d82610442565b9050919050565b61047d81610462565b811461048857600080fd5b50565b60008135905061049a81610474565b92915050565b60008060008060008060a087890312156104bd576104bc61039d565b5b60006104cb89828a016103c8565b96505060206104dc89828a016103c8565b955050604087013567ffffffffffffffff8111156104fd576104fc6103a2565b5b61050989828a016103ec565b9450945050606061051c89828a0161048b565b925050608061052d89828a016103c8565b9150509295509295509295565b610543816103a7565b82525050565b600060208201905061055e600083018461053a565b92915050565b61056d81610462565b82525050565b60006020820190506105886000830184610564565b92915050565b7f4e487b7100000000000000000000000000000000000000000000000000000000600052603260045260246000fd5b6000602082840312156105d3576105d261039d565b5b60006105e18482850161048b565b91505092915050565b60006060820190506105ff6000830186610564565b61060c6020830185610564565b610619604083018461053a565b949350505050565b60008115159050919050565b61063681610621565b811461064157600080fd5b50565b6000815190506106538161062d565b92915050565b60006020828403121561066f5761066e61039d565b5b600061067d84828501610644565b91505092915050565b600060408201905061069b6000830185610564565b6106a8602083018461053a565b9392505050565b600082825260208201905092915050565b7f617070726f7665206661696c65642e0000000000000000000000000000000000600082015250565b60006106f6600f836106af565b9150610701826106c0565b602082019050919050565b60006020820190508181036000830152610725816106e9565b9050919050565b600082825260208201905092915050565b6000819050919050565b61075081610462565b82525050565b60006107628383610747565b60208301905092915050565b600061077d602084018461048b565b905092915050565b6000602082019050919050565b600061079e838561072c565b93506107a98261073d565b8060005b858110156107e2576107bf828461076e565b6107c98882610756565b97506107d483610785565b9250506001810190506107ad565b5085925050509392505050565b600060a082019050610804600083018961053a565b610811602083018861053a565b8181036040830152610824818688610792565b90506108336060830185610564565b610840608083018461053a565b979650505050505050565b6000601f19601f8301169050919050565b7f4e487b7100000000000000000000000000000000000000000000000000000000600052604160045260246000fd5b6108948261084b565b810181811067ffffffffffffffff821117156108b3576108b261085c565b5b80604052505050565b60006108c6610393565b90506108d2828261088b565b919050565b600067ffffffffffffffff8211156108f2576108f161085c565b5b602082029050602081019050919050565b600081519050610912816103b1565b92915050565b600061092b610926846108d7565b6108bc565b9050808382526020820190506020840283018581111561094e5761094d6103e7565b5b835b8181101561097757806109638882610903565b845260208401935050602081019050610950565b5050509392505050565b600082601f830112610996576109956103dd565b5b81516109a6848260208601610918565b91505092915050565b6000602082840312156109c5576109c461039d565b5b600082015167ffffffffffffffff8111156109e3576109e26103a2565b5b6109ef84828501610981565b91505092915050565b7f4e487b7100000000000000000000000000000000000000000000000000000000600052601160045260246000fd5b6000610a32826103a7565b9150610a3d836103a7565b9250828201905080821115610a5557610a546109f8565b5b9291505056fea26469706673582212204f66acd0c49d0e69bf441ca5fcaac09cc92709e0b594839527cb96b2774ddde264736f6c63430008180033",
  "linkReferences": {},
  "deployedLinkReferences": {}
}